{
    "contractName": "NFTStaking",
    "abi": [
        {
            "inputs": [
                {
                    "internalType": "address",
                    "name": "_acceptedToken",
                    "type": "address"
                },
                {
                    "internalType": "uint256",
                    "name": "_15bps",
                    "type": "uint256"
                },
                {
                    "internalType": "uint256",
                    "name": "_30bps",
                    "type": "uint256"
                },
                {
                    "internalType": "uint256",
                    "name": "_90bps",
                    "type": "uint256"
                }
            ],
            "stateMutability": "nonpayable",
            "type": "constructor"
        },
        {
            "anonymous": false,
            "inputs": [
                {
                    "indexed": true,
                    "internalType": "address",
                    "name": "owner",
                    "type": "address"
                },
                {
                    "indexed": true,
                    "internalType": "address",
                    "name": "spender",
                    "type": "address"
                },
                {
                    "indexed": false,
                    "internalType": "uint256",
                    "name": "value",
                    "type": "uint256"
                }
            ],
            "name": "Approval",
            "type": "event"
        },
        {
            "anonymous": false,
            "inputs": [
                {
                    "indexed": true,
                    "internalType": "address",
                    "name": "user",
                    "type": "address"
                },
                {
                    "indexed": false,
                    "internalType": "uint256",
                    "name": "TRVLAmount",
                    "type": "uint256"
                },
                {
                    "indexed": false,
                    "internalType": "uint256",
                    "name": "timeStart",
                    "type": "uint256"
                }
            ],
            "name": "DepositEvent",
            "type": "event"
        },
        {
            "anonymous": false,
            "inputs": [
                {
                    "indexed": true,
                    "internalType": "address",
                    "name": "previousOwner",
                    "type": "address"
                },
                {
                    "indexed": true,
                    "internalType": "address",
                    "name": "newOwner",
                    "type": "address"
                }
            ],
            "name": "OwnershipTransferred",
            "type": "event"
        },
        {
            "anonymous": false,
            "inputs": [
                {
                    "indexed": true,
                    "internalType": "address",
                    "name": "from",
                    "type": "address"
                },
                {
                    "indexed": true,
                    "internalType": "address",
                    "name": "to",
                    "type": "address"
                },
                {
                    "indexed": false,
                    "internalType": "uint256",
                    "name": "value",
                    "type": "uint256"
                }
            ],
            "name": "Transfer",
            "type": "event"
        },
        {
            "anonymous": false,
            "inputs": [
                {
                    "indexed": true,
                    "internalType": "address",
                    "name": "user",
                    "type": "address"
                },
                {
                    "indexed": false,
                    "internalType": "uint256",
                    "name": "TRVLAmount",
                    "type": "uint256"
                },
                {
                    "indexed": false,
                    "internalType": "uint256",
                    "name": "interest",
                    "type": "uint256"
                }
            ],
            "name": "WithdrawEvent",
            "type": "event"
        },
        {
            "inputs": [
                {
                    "internalType": "address",
                    "name": "",
                    "type": "address"
                }
            ],
            "name": "TRVLBalanceOf",
            "outputs": [
                {
                    "internalType": "uint256",
                    "name": "",
                    "type": "uint256"
                }
            ],
            "stateMutability": "view",
            "type": "function"
        },
        {
            "inputs": [],
            "name": "acceptedToken",
            "outputs": [
                {
                    "internalType": "contract IERC20",
                    "name": "",
                    "type": "address"
                }
            ],
            "stateMutability": "view",
            "type": "function"
        },
        {
            "inputs": [
                {
                    "internalType": "address",
                    "name": "owner",
                    "type": "address"
                },
                {
                    "internalType": "address",
                    "name": "spender",
                    "type": "address"
                }
            ],
            "name": "allowance",
            "outputs": [
                {
                    "internalType": "uint256",
                    "name": "",
                    "type": "uint256"
                }
            ],
            "stateMutability": "view",
            "type": "function"
        },
        {
            "inputs": [
                {
                    "internalType": "address",
                    "name": "spender",
                    "type": "address"
                },
                {
                    "internalType": "uint256",
                    "name": "amount",
                    "type": "uint256"
                }
            ],
            "name": "approve",
            "outputs": [
                {
                    "internalType": "bool",
                    "name": "",
                    "type": "bool"
                }
            ],
            "stateMutability": "nonpayable",
            "type": "function"
        },
        {
            "inputs": [
                {
                    "internalType": "address",
                    "name": "account",
                    "type": "address"
                }
            ],
            "name": "balanceOf",
            "outputs": [
                {
                    "internalType": "uint256",
                    "name": "",
                    "type": "uint256"
                }
            ],
            "stateMutability": "view",
            "type": "function"
        },
        {
            "inputs": [
                {
                    "internalType": "address",
                    "name": "_user",
                    "type": "address"
                }
            ],
            "name": "calculateInterests",
            "outputs": [
                {
                    "internalType": "uint256",
                    "name": "insterest",
                    "type": "uint256"
                }
            ],
            "stateMutability": "view",
            "type": "function"
        },
        {
            "inputs": [
                {
                    "internalType": "uint256",
                    "name": "_30bps",
                    "type": "uint256"
                },
                {
                    "internalType": "uint256",
                    "name": "_90bps",
                    "type": "uint256"
                },
                {
                    "internalType": "uint256",
                    "name": "_180bps",
                    "type": "uint256"
                },
                {
                    "internalType": "uint256",
                    "name": "_360bps",
                    "type": "uint256"
                }
            ],
            "name": "changeInterestRate",
            "outputs": [],
            "stateMutability": "nonpayable",
            "type": "function"
        },
        {
            "inputs": [],
            "name": "decimals",
            "outputs": [
                {
                    "internalType": "uint8",
                    "name": "",
                    "type": "uint8"
                }
            ],
            "stateMutability": "view",
            "type": "function"
        },
        {
            "inputs": [
                {
                    "internalType": "address",
                    "name": "spender",
                    "type": "address"
                },
                {
                    "internalType": "uint256",
                    "name": "subtractedValue",
                    "type": "uint256"
                }
            ],
            "name": "decreaseAllowance",
            "outputs": [
                {
                    "internalType": "bool",
                    "name": "",
                    "type": "bool"
                }
            ],
            "stateMutability": "nonpayable",
            "type": "function"
        },
        {
            "inputs": [
                {
                    "internalType": "uint256",
                    "name": "_amount",
                    "type": "uint256"
                }
            ],
            "name": "deposit",
            "outputs": [],
            "stateMutability": "payable",
            "type": "function"
        },
        {
            "inputs": [
                {
                    "internalType": "address",
                    "name": "",
                    "type": "address"
                }
            ],
            "name": "depositStart",
            "outputs": [
                {
                    "internalType": "uint256",
                    "name": "",
                    "type": "uint256"
                }
            ],
            "stateMutability": "view",
            "type": "function"
        },
        {
            "inputs": [
                {
                    "internalType": "uint256",
                    "name": "_depositTime",
                    "type": "uint256"
                }
            ],
            "name": "getBasisPoints",
            "outputs": [
                {
                    "internalType": "uint256",
                    "name": "basisPoints",
                    "type": "uint256"
                }
            ],
            "stateMutability": "view",
            "type": "function"
        },
        {
            "inputs": [
                {
                    "internalType": "address",
                    "name": "spender",
                    "type": "address"
                },
                {
                    "internalType": "uint256",
                    "name": "addedValue",
                    "type": "uint256"
                }
            ],
            "name": "increaseAllowance",
            "outputs": [
                {
                    "internalType": "bool",
                    "name": "",
                    "type": "bool"
                }
            ],
            "stateMutability": "nonpayable",
            "type": "function"
        },
        {
            "inputs": [
                {
                    "internalType": "address",
                    "name": "",
                    "type": "address"
                }
            ],
            "name": "isDeposited",
            "outputs": [
                {
                    "internalType": "bool",
                    "name": "",
                    "type": "bool"
                }
            ],
            "stateMutability": "view",
            "type": "function"
        },
        {
            "inputs": [
                {
                    "internalType": "address",
                    "name": "_recipient",
                    "type": "address"
                },
                {
                    "internalType": "uint256",
                    "name": "_amount",
                    "type": "uint256"
                }
            ],
            "name": "mint",
            "outputs": [],
            "stateMutability": "nonpayable",
            "type": "function"
        },
        {
            "inputs": [],
            "name": "name",
            "outputs": [
                {
                    "internalType": "string",
                    "name": "",
                    "type": "string"
                }
            ],
            "stateMutability": "view",
            "type": "function"
        },
        {
            "inputs": [],
            "name": "oneMonthBasisPoints",
            "outputs": [
                {
                    "internalType": "uint256",
                    "name": "",
                    "type": "uint256"
                }
            ],
            "stateMutability": "view",
            "type": "function"
        },
        {
            "inputs": [],
            "name": "owner",
            "outputs": [
                {
                    "internalType": "address",
                    "name": "",
                    "type": "address"
                }
            ],
            "stateMutability": "view",
            "type": "function"
        },
        {
            "inputs": [],
            "name": "renounceOwnership",
            "outputs": [],
            "stateMutability": "nonpayable",
            "type": "function"
        },
        {
            "inputs": [],
            "name": "sixMonthsBasisPoints",
            "outputs": [
                {
                    "internalType": "uint256",
                    "name": "",
                    "type": "uint256"
                }
            ],
            "stateMutability": "view",
            "type": "function"
        },
        {
            "inputs": [],
            "name": "symbol",
            "outputs": [
                {
                    "internalType": "string",
                    "name": "",
                    "type": "string"
                }
            ],
            "stateMutability": "view",
            "type": "function"
        },
        {
            "inputs": [],
            "name": "threeMonthsBasisPoints",
            "outputs": [
                {
                    "internalType": "uint256",
                    "name": "",
                    "type": "uint256"
                }
            ],
            "stateMutability": "view",
            "type": "function"
        },
        {
            "inputs": [],
            "name": "totalSupply",
            "outputs": [
                {
                    "internalType": "uint256",
                    "name": "",
                    "type": "uint256"
                }
            ],
            "stateMutability": "view",
            "type": "function"
        },
        {
            "inputs": [
                {
                    "internalType": "address",
                    "name": "to",
                    "type": "address"
                },
                {
                    "internalType": "uint256",
                    "name": "amount",
                    "type": "uint256"
                }
            ],
            "name": "transfer",
            "outputs": [
                {
                    "internalType": "bool",
                    "name": "",
                    "type": "bool"
                }
            ],
            "stateMutability": "nonpayable",
            "type": "function"
        },
        {
            "inputs": [
                {
                    "internalType": "address",
                    "name": "from",
                    "type": "address"
                },
                {
                    "internalType": "address",
                    "name": "to",
                    "type": "address"
                },
                {
                    "internalType": "uint256",
                    "name": "amount",
                    "type": "uint256"
                }
            ],
            "name": "transferFrom",
            "outputs": [
                {
                    "internalType": "bool",
                    "name": "",
                    "type": "bool"
                }
            ],
            "stateMutability": "nonpayable",
            "type": "function"
        },
        {
            "inputs": [
                {
                    "internalType": "address",
                    "name": "newOwner",
                    "type": "address"
                }
            ],
            "name": "transferOwnership",
            "outputs": [],
            "stateMutability": "nonpayable",
            "type": "function"
        },
        {
            "inputs": [],
            "name": "twelveMonthsBasisPoints",
            "outputs": [
                {
                    "internalType": "uint256",
                    "name": "",
                    "type": "uint256"
                }
            ],
            "stateMutability": "view",
            "type": "function"
        },
        {
            "inputs": [],
            "name": "withdraw",
            "outputs": [],
            "stateMutability": "nonpayable",
            "type": "function"
        },
        {
            "inputs": [],
            "name": "withdrawInterests",
            "outputs": [],
            "stateMutability": "nonpayable",
            "type": "function"
        }
    ],
    "bytecode": "60806040526006805460ff60a01b1916600960a11b1790553480156200002457600080fd5b506040516200192b3803806200192b8339810160408190526200004791620001fd565b60408051808201825260078152667473686172657360c81b602080830191825283518085019094526008845267542d53686172657360c01b908401528151919291620000969160039162000157565b508051620000ac90600490602084019062000157565b505050620000c9620000c36200010160201b60201c565b62000105565b600680546001600160a01b0319166001600160a01b0395909516949094179093556007919091556008556009819055600a5562000286565b3390565b600580546001600160a01b038381166001600160a01b0319831681179093556040519116919082907f8be0079c531659141344cd1fd0a4f28419497f9722a3daafe3b4186f6b6457e090600090a35050565b82805462000165906200024a565b90600052602060002090601f016020900481019282620001895760008555620001d4565b82601f10620001a457805160ff1916838001178555620001d4565b82800160010185558215620001d4579182015b82811115620001d4578251825591602001919060010190620001b7565b50620001e2929150620001e6565b5090565b5b80821115620001e25760008155600101620001e7565b600080600080608085870312156200021457600080fd5b84516001600160a01b03811681146200022c57600080fd5b60208601516040870151606090970151919890975090945092505050565b600181811c908216806200025f57607f821691505b6020821081036200028057634e487b7160e01b600052602260045260246000fd5b50919050565b61169580620002966000396000f3fe6080604052600436106101c25760003560e01c806370a08231116100f7578063a9059cbb11610095578063dd62ed3e11610064578063dd62ed3e146104f1578063f2fde38b14610511578063f401313614610531578063ff87930a1461054757600080fd5b8063a9059cbb1461047e578063b6b55f251461049e578063b9226e8b146104b1578063ca06e784146104d157600080fd5b806382f0c81c116100d157806382f0c81c146104165780638da5cb5b1461042b57806395d89b4114610449578063a457c2d71461045e57600080fd5b806370a082311461039b578063715018a6146103d157806373732024146103e657600080fd5b80633ccfd60b11610164578063451c3d801161013e578063451c3d801461030a5780634574d1e8146103425780634950c7c4146103585780635dad86561461038557600080fd5b80633ccfd60b146102bf5780633d16812c146102d457806340c10f19146102ea57600080fd5b806323b872dd116101a057806323b872dd14610241578063313ce56714610261578063330184531461027d578063395093511461029f57600080fd5b806306fdde03146101c7578063095ea7b3146101f257806318160ddd14610222575b600080fd5b3480156101d357600080fd5b506101dc610574565b6040516101e991906113e3565b60405180910390f35b3480156101fe57600080fd5b5061021261020d36600461142d565b610606565b60405190151581526020016101e9565b34801561022e57600080fd5b506002545b6040519081526020016101e9565b34801561024d57600080fd5b5061021261025c366004611457565b61061e565b34801561026d57600080fd5b50604051601281526020016101e9565b34801561028957600080fd5b5061029d610298366004611493565b610644565b005b3480156102ab57600080fd5b506102126102ba36600461142d565b61068b565b3480156102cb57600080fd5b5061029d6106ad565b3480156102e057600080fd5b5061023360075481565b3480156102f657600080fd5b5061029d61030536600461142d565b6107a7565b34801561031657600080fd5b5060065461032a906001600160a01b031681565b6040516001600160a01b0390911681526020016101e9565b34801561034e57600080fd5b50610233600a5481565b34801561036457600080fd5b506102336103733660046114c5565b600c6020526000908152604090205481565b34801561039157600080fd5b5061023360095481565b3480156103a757600080fd5b506102336103b63660046114c5565b6001600160a01b031660009081526020819052604090205490565b3480156103dd57600080fd5b5061029d6107df565b3480156103f257600080fd5b506102126104013660046114c5565b600d6020526000908152604090205460ff1681565b34801561042257600080fd5b5061029d610815565b34801561043757600080fd5b506005546001600160a01b031661032a565b34801561045557600080fd5b506101dc6108a6565b34801561046a57600080fd5b5061021261047936600461142d565b6108b5565b34801561048a57600080fd5b5061021261049936600461142d565b61093b565b61029d6104ac3660046114e0565b610949565b3480156104bd57600080fd5b506102336104cc3660046114c5565b610a9d565b3480156104dd57600080fd5b506102336104ec3660046114e0565b610b20565b3480156104fd57600080fd5b5061023361050c3660046114f9565b610b74565b34801561051d57600080fd5b5061029d61052c3660046114c5565b610b9f565b34801561053d57600080fd5b5061023360085481565b34801561055357600080fd5b506102336105623660046114c5565b600b6020526000908152604090205481565b6060600380546105839061152c565b80601f01602080910402602001604051908101604052809291908181526020018280546105af9061152c565b80156105fc5780601f106105d1576101008083540402835291602001916105fc565b820191906000526020600020905b8154815290600101906020018083116105df57829003601f168201915b5050505050905090565b600033610614818585610c37565b5060019392505050565b60003361062c858285610d5b565b610637858585610dd5565b60019150505b9392505050565b6005546001600160a01b031633146106775760405162461bcd60e51b815260040161066e90611566565b60405180910390fd5b600793909355600891909155600955600a55565b60003361061481858561069e8383610b74565b6106a891906115b1565b610c37565b336000908152600d602052604090205460ff1615156001146107115760405162461bcd60e51b815260206004820152601a60248201527f4572726f722c206e6f2070726576696f7573206465706f736974000000000000604482015260640161066e565b600061071c33610a9d565b336000818152600c60209081526040808320805490849055600d909252909120805460ff191690559192506107519083610fa3565b600654610768906001600160a01b03163383611082565b604080518281526020810184905233917f5bb95829671915ece371da722f91d5371159095dcabf2f75cd6c53facb7e1bab910160405180910390a25050565b6005546001600160a01b031633146107d15760405162461bcd60e51b815260040161066e90611566565b6107db8282610fa3565b5050565b6005546001600160a01b031633146108095760405162461bcd60e51b815260040161066e90611566565b61081360006110ea565b565b336000908152600d602052604090205460ff1615156001146108795760405162461bcd60e51b815260206004820152601a60248201527f4572726f722c206e6f2070726576696f7573206465706f736974000000000000604482015260640161066e565b600061088433610a9d565b336000818152600b602052604090204290559091506108a39082610fa3565b50565b6060600480546105839061152c565b600033816108c38286610b74565b9050838110156109235760405162461bcd60e51b815260206004820152602560248201527f45524332303a2064656372656173656420616c6c6f77616e63652062656c6f77604482015264207a65726f60d81b606482015260840161066e565b6109308286868403610c37565b506001949350505050565b600033610614818585610dd5565b662386f26fc100008110156109ac5760405162461bcd60e51b815260206004820152602360248201527f4572726f722c206465706f736974206d757374206265203e3d20302e3031205460448201526214959360ea1b606482015260840161066e565b336000908152600d602052604090205460ff16156109fc576109cc610815565b336000908152600c60205260409020546109e79082906115b1565b336000908152600c6020526040902055610a48565b336000908152600c602052604081208054839290610a1b9084906115b1565b9091555050336000908152600b60209081526040808320429055600d9091529020805460ff191660011790555b600654610a60906001600160a01b031633308461113c565b6040805134815242602082015233917fad40ae5dc69974ba932d08b0a608e89109412d41d04850f5196f144875ae2660910160405180910390a250565b6001600160a01b0381166000908152600c6020908152604080832054338452600b9092528220548290610ad090426115c9565b90506000610add82610b20565b90506000612710610aee83866115e0565b610af891906115ff565b9050600083610b0b6301e13380846115ff565b610b1591906115e0565b979650505050505050565b600062278d00821015610b3557505060075490565b6276a700821015610b4857505060085490565b62ed4e00821115610b5b57505060095490565b6301da9c00821115610b6f575050600a5490565b919050565b6001600160a01b03918216600090815260016020908152604080832093909416825291909152205490565b6005546001600160a01b03163314610bc95760405162461bcd60e51b815260040161066e90611566565b6001600160a01b038116610c2e5760405162461bcd60e51b815260206004820152602660248201527f4f776e61626c653a206e6577206f776e657220697320746865207a65726f206160448201526564647265737360d01b606482015260840161066e565b6108a3816110ea565b6001600160a01b038316610c995760405162461bcd60e51b8152602060048201526024808201527f45524332303a20617070726f76652066726f6d20746865207a65726f206164646044820152637265737360e01b606482015260840161066e565b6001600160a01b038216610cfa5760405162461bcd60e51b815260206004820152602260248201527f45524332303a20617070726f766520746f20746865207a65726f206164647265604482015261737360f01b606482015260840161066e565b6001600160a01b0383811660008181526001602090815260408083209487168084529482529182902085905590518481527f8c5be1e5ebec7d5bd14f71427d1e84f3dd0314c0f7b2291e5b200ac8c7c3b925910160405180910390a3505050565b6000610d678484610b74565b90506000198114610dcf5781811015610dc25760405162461bcd60e51b815260206004820152601d60248201527f45524332303a20696e73756666696369656e7420616c6c6f77616e6365000000604482015260640161066e565b610dcf8484848403610c37565b50505050565b6001600160a01b038316610e395760405162461bcd60e51b815260206004820152602560248201527f45524332303a207472616e736665722066726f6d20746865207a65726f206164604482015264647265737360d81b606482015260840161066e565b6001600160a01b038216610e9b5760405162461bcd60e51b815260206004820152602360248201527f45524332303a207472616e7366657220746f20746865207a65726f206164647260448201526265737360e81b606482015260840161066e565b6001600160a01b03831660009081526020819052604090205481811015610f135760405162461bcd60e51b815260206004820152602660248201527f45524332303a207472616e7366657220616d6f756e7420657863656564732062604482015265616c616e636560d01b606482015260840161066e565b6001600160a01b03808516600090815260208190526040808220858503905591851681529081208054849290610f4a9084906115b1565b92505081905550826001600160a01b0316846001600160a01b03167fddf252ad1be2c89b69c2b068fc378daa952ba7f163c4a11628f55a4df523b3ef84604051610f9691815260200190565b60405180910390a3610dcf565b6001600160a01b038216610ff95760405162461bcd60e51b815260206004820152601f60248201527f45524332303a206d696e7420746f20746865207a65726f206164647265737300604482015260640161066e565b806002600082825461100b91906115b1565b90915550506001600160a01b038216600090815260208190526040812080548392906110389084906115b1565b90915550506040518181526001600160a01b038316906000907fddf252ad1be2c89b69c2b068fc378daa952ba7f163c4a11628f55a4df523b3ef9060200160405180910390a35050565b6040516001600160a01b0383166024820152604481018290526110e590849063a9059cbb60e01b906064015b60408051601f198184030181529190526020810180516001600160e01b03166001600160e01b031990931692909217909152611174565b505050565b600580546001600160a01b038381166001600160a01b0319831681179093556040519116919082907f8be0079c531659141344cd1fd0a4f28419497f9722a3daafe3b4186f6b6457e090600090a35050565b6040516001600160a01b0380851660248301528316604482015260648101829052610dcf9085906323b872dd60e01b906084016110ae565b60006111c9826040518060400160405280602081526020017f5361666545524332303a206c6f772d6c6576656c2063616c6c206661696c6564815250856001600160a01b03166112469092919063ffffffff16565b8051909150156110e557808060200190518101906111e79190611621565b6110e55760405162461bcd60e51b815260206004820152602a60248201527f5361666545524332303a204552433230206f7065726174696f6e20646964206e6044820152691bdd081cdd58d8d9595960b21b606482015260840161066e565b6060611255848460008561125d565b949350505050565b6060824710156112be5760405162461bcd60e51b815260206004820152602660248201527f416464726573733a20696e73756666696369656e742062616c616e636520666f6044820152651c8818d85b1b60d21b606482015260840161066e565b6001600160a01b0385163b6113155760405162461bcd60e51b815260206004820152601d60248201527f416464726573733a2063616c6c20746f206e6f6e2d636f6e7472616374000000604482015260640161066e565b600080866001600160a01b031685876040516113319190611643565b60006040518083038185875af1925050503d806000811461136e576040519150601f19603f3d011682016040523d82523d6000602084013e611373565b606091505b5091509150610b158282866060831561138d57508161063d565b82511561139d5782518084602001fd5b8160405162461bcd60e51b815260040161066e91906113e3565b60005b838110156113d25781810151838201526020016113ba565b83811115610dcf5750506000910152565b60208152600082518060208401526114028160408501602087016113b7565b601f01601f19169190910160400192915050565b80356001600160a01b0381168114610b6f57600080fd5b6000806040838503121561144057600080fd5b61144983611416565b946020939093013593505050565b60008060006060848603121561146c57600080fd5b61147584611416565b925061148360208501611416565b9150604084013590509250925092565b600080600080608085870312156114a957600080fd5b5050823594602084013594506040840135936060013592509050565b6000602082840312156114d757600080fd5b61063d82611416565b6000602082840312156114f257600080fd5b5035919050565b6000806040838503121561150c57600080fd5b61151583611416565b915061152360208401611416565b90509250929050565b600181811c9082168061154057607f821691505b60208210810361156057634e487b7160e01b600052602260045260246000fd5b50919050565b6020808252818101527f4f776e61626c653a2063616c6c6572206973206e6f7420746865206f776e6572604082015260600190565b634e487b7160e01b600052601160045260246000fd5b600082198211156115c4576115c461159b565b500190565b6000828210156115db576115db61159b565b500390565b60008160001904831182151516156115fa576115fa61159b565b500290565b60008261161c57634e487b7160e01b600052601260045260246000fd5b500490565b60006020828403121561163357600080fd5b8151801515811461063d57600080fd5b600082516116558184602087016113b7565b919091019291505056fea26469706673582212203332d5ff8b0ecebb0e8c85cf5c2a1e708b1e63addc9a87178db2f849b2bd794a64736f6c634300080e0033",
    "sourcePath": "d:/Smart Contract samples/learning-stage-nft/contracts/NFTStaking.sol",
    "compiler": {
        "name": "solc",
        "version": "0.8.14+commit.80d49f37"
    },
    "functionHashes": {
        "TRVLBalanceOf(address)": "4950c7c4",
        "acceptedToken()": "451c3d80",
        "allowance(address,address)": "dd62ed3e",
        "approve(address,uint256)": "095ea7b3",
        "balanceOf(address)": "70a08231",
        "calculateInterests(address)": "b9226e8b",
        "changeInterestRate(uint256,uint256,uint256,uint256)": "33018453",
        "decimals()": "313ce567",
        "decreaseAllowance(address,uint256)": "a457c2d7",
        "deposit(uint256)": "b6b55f25",
        "depositStart(address)": "ff87930a",
        "getBasisPoints(uint256)": "ca06e784",
        "increaseAllowance(address,uint256)": "39509351",
        "isDeposited(address)": "73732024",
        "mint(address,uint256)": "40c10f19",
        "name()": "06fdde03",
        "oneMonthBasisPoints()": "3d16812c",
        "owner()": "8da5cb5b",
        "renounceOwnership()": "715018a6",
        "sixMonthsBasisPoints()": "5dad8656",
        "symbol()": "95d89b41",
        "threeMonthsBasisPoints()": "f4013136",
        "totalSupply()": "18160ddd",
        "transfer(address,uint256)": "a9059cbb",
        "transferFrom(address,address,uint256)": "23b872dd",
        "transferOwnership(address)": "f2fde38b",
        "twelveMonthsBasisPoints()": "4574d1e8",
        "withdraw()": "3ccfd60b",
        "withdrawInterests()": "82f0c81c"
    },
    "gasEstimates": {
        "creation": {
            "codeDepositCost": "1156200",
            "executionCost": "infinite",
            "totalCost": "infinite"
        },
        "external": {
            "TRVLBalanceOf(address)": "2608",
            "acceptedToken()": "2382",
            "allowance(address,address)": "infinite",
            "approve(address,uint256)": "24670",
            "balanceOf(address)": "2586",
            "calculateInterests(address)": "infinite",
            "changeInterestRate(uint256,uint256,uint256,uint256)": "90941",
            "decimals()": "245",
            "decreaseAllowance(address,uint256)": "27061",
            "deposit(uint256)": "infinite",
            "depositStart(address)": "2629",
            "getBasisPoints(uint256)": "2605",
            "increaseAllowance(address,uint256)": "27090",
            "isDeposited(address)": "2621",
            "mint(address,uint256)": "infinite",
            "name()": "infinite",
            "oneMonthBasisPoints()": "2363",
            "owner()": "2398",
            "renounceOwnership()": "28185",
            "sixMonthsBasisPoints()": "2406",
            "symbol()": "infinite",
            "threeMonthsBasisPoints()": "2383",
            "totalSupply()": "2372",
            "transfer(address,uint256)": "51227",
            "transferFrom(address,address,uint256)": "infinite",
            "transferOwnership(address)": "28378",
            "twelveMonthsBasisPoints()": "2362",
            "withdraw()": "infinite",
            "withdrawInterests()": "infinite"
        }
    }
}